:100000000C942A000C949D010C9447000C9447001A
:100010000C9447000C9447000C9447000C94470044
:100020000C9447000C9447000C9447000C94470034
:100030000C9447000C9447000C9447000C94470024
:100040000C9447000C9447000C9447000C94470014
:100050000C94470011241FBECFE5D8E0DEBFCDBF12
:1000600010E0A0E6B0E0E4E8FAE002C005900D92EE
:10007000A236B107D9F720E0A2E6B0E001C01D9298
:10008000A336B207E1F70E94B9010C9440050C9425
:10009000000060E081E40E94AD0161E081E40E9423
:1000A000AD0162E081E40E94AD0160E082E40E9463
:1000B000AD0161E082E40E94AD0162E082E40E9451
:1000C000AD0162E084E40E94A901789485B7836061
:1000D00085BF8BB780648BBF0895CF9390916000EC
:1000E000911107C080916200882319F0813009F0D6
:1000F000CEC080916200813041F120F0823009F45D
:1001000097C0BEC060E081E40E94B10162E082E479
:100110000E94B10162E081E40E94B50160E082E4E6
:100120000E94B501C0E009C084E490E00E94AD02E5
:1001300080916000882319F0CF5FC233A8F381E07B
:100140008093620010926100F6C0911152C08091BC
:100150006100823029F162E082E40E94B101C0E0D6
:100160001DC061E081E40E94B10185EE91E00E9432
:10017000AD0261E081E40E94B50161E082E40E9489
:10018000B50185EE91E00E94AD0261E081E40E943C
:10019000B10161E082E40E94B101CF5FC53008F394
:1001A00081E08093610082E08093620062E081E4FC
:1001B0000E94B10121C061E081E40E94B10185EE9D
:1001C00091E00E94AD0261E081E40E94B50185EEFC
:1001D00091E00E94AD0261E081E40E94B101809152
:1001E0006000811104C081E08093610005C0CF5F91
:1001F00001C0C0E0C530F8F261E081E40E94B501C1
:1002000061E082E40E94B50180916100811107C024
:1002100082E08093620081E0809361008CC0823034
:1002200009F089C01092620081E08093610083C070
:1002300060E081E40E94B50161E081E40E94B501C3
:1002400062E082E40E94B50162E081E40E94B101B3
:1002500060E082E40E94B101C0E009C084E490E063
:100260000E94AD0280916000882319F0CF5FC233F5
:10027000A8F382E08093610081E0809362005BC01C
:1002800082E08093620081E08093610054C060E06E
:1002900082E40E94B10161E082E40E94B50162E063
:1002A00082E40E94B50160E081E40E94B50161E052
:1002B00081E40E94B50162E081E40E94B10188E816
:1002C00093E10E94AD02C0E021C061E081E40E94A0
:1002D000B10161E082E40E94B10185EE91E00E94EB
:1002E000AD0261E081E40E94B50161E082E40E9418
:1002F000B50185EE91E00E94AD0261E081E40E94CB
:10030000B10161E082E40E94B101CF5FC530E8F243
:1003100061E081E40E94B50161E082E40E94B501E0
:1003200062E082E40E94B10181E08093600010925B
:10033000620080936100CF9108951F920F920FB6D3
:100340000F921124109260000F900FBE0F901F901B
:10035000189540E00E94BE01089541E00E94BE0150
:10036000089541E00E943302089540E00E94330264
:1003700008950E9449000E946D00FDCF823429F14A
:1003800018F4813439F008958334C9F1843409F4C0
:1003900050C0089541110BC02AB381E090E002C023
:1003A000880F991F6A95E2F782238ABB089541302E
:1003B00009F058C02AB381E090E002C0880F991F6D
:1003C0006A95E2F7822B8ABB089541110BC027B3CF
:1003D00081E090E002C0880F991F6A95E2F78223BE
:1003E00087BB08954130F1F527B381E090E002C06A
:1003F000880F991F6A95E2F7822B87BB08954111F8
:100400000BC024B381E090E002C0880F991F6A9569
:10041000E2F7822384BB0895413021F524B381E0C3
:1004200090E002C0880F991F6A95E2F7822B84BB87
:10043000089541110BC021B381E090E002C0880F04
:10044000991F6A95E2F7822381BB0895413051F4E8
:1004500021B381E090E002C0880F991F6A95E2F70E
:10046000822B81BB0895823431F118F4813439F044
:1004700008958334E1F1843409F454C0089541119E
:100480000CC02BB381E090E002C0880F991F6A95E1
:10049000E2F7809582238BBB0895413009F05CC060
:1004A0002BB381E090E002C0880F991F6A95E2F7B4
:1004B000822B8BBB089541110CC028B381E090E0E2
:1004C00002C0880F991F6A95E2F78095822388BB46
:1004D0000895413009F040C028B381E090E002C0A7
:1004E000880F991F6A95E2F7822B88BB0895411106
:1004F0000CC025B381E090E002C0880F991F6A9577
:10050000E2F78095822385BB0895413029F525B314
:1005100081E090E002C0880F991F6A95E2F7822B74
:1005200085BB089541110CC022B381E090E002C068
:10053000880F991F6A95E2F78095822382BB089500
:10054000413051F422B381E090E002C0880F991F3E
:100550006A95E2F7822B82BB0895CF92DF92EF92E9
:10056000FF92CF93BC0180E090E00E944D046B01AC
:100570007C012FE632E143E852E40E94A70388237E
:1005800094F4A70196016FE672E183E892E40E9479
:1005900023032FE632E143E85EE30E94AC030E94AE
:1005A0001E04C1E03AC02FE632E143E852E4C7013D
:1005B000B6010E94A703882371F12FE632E143E8D8
:1005C00052E4C701B6010E94AC030E9490030E944E
:1005D0001E04C62F2FE632E143E85EE3C701B601F1
:1005E0000E94AC036B017C016C2F70E080E090E016
:1005F0000E944F049B01AC01C701B6010E94AC03ED
:100600009B01AC0160E070E080E893E40E9423036A
:100610000E941E0402C060E0C1E062BF83B7846034
:1006200083BF90E007C008B600FEFDCF88B78160A9
:1006300088BF9F5F9C17B8F313BECF91FF90EF90D8
:10064000DF90CF9008955058BB27AA270E943B0304
:100650000C94EE040E94E00438F00E94E70420F0BD
:1006600039F49F3F19F426F40C94DD040EF4E09560
:10067000E7FB0C94AE04E92F0E94FF0458F3BA176D
:10068000620773078407950720F079F4A6F50C94A8
:1006900039050EF4E0950B2EBA2FA02D0B01B901F0
:1006A00090010C01CA01A0011124FF27591B99F0E8
:1006B000593F50F4503E68F11A16F040A22F232FF4
:1006C000342F4427585FF3CF469537952795A79544
:1006D000F0405395C9F77EF41F16BA0B620B730BEB
:1006E000840BBAF09150A1F0FF0FBB1F661F771F5C
:1006F000881FC2F70EC0BA0F621F731F841F48F411
:10070000879577956795B795F7959E3F08F0B0CF99
:100710009395880F08F09927EE0F97958795089580
:100720000E94210590F09F3748F4911116F40C9423
:100730003A0560E070E080E89FE3089526F01B161C
:10074000611D711D811D0C94B4040C94CF040E9492
:100750008A0408F481E008950E94C0030C94EE041A
:100760000E94E70458F00E94E00440F029F45F3F43
:1007700029F00C94AE0451110C943A050C94DD044C
:100780000E94FF0468F39923B1F3552391F3951B5D
:10079000550BBB27AA2762177307840738F09F5FA2
:1007A0005F4F220F331F441FAA1FA9F335D00E2E0F
:1007B0003AF0E0E832D091505040E695001CCAF77C
:1007C0002BD0FE2F29D0660F771F881FBB1F26173F
:1007D00037074807AB07B0E809F0BB0B802DBF0116
:1007E000FF2793585F4F3AF09E3F510578F00C94E5
:1007F000AE040C943A055F3FE4F3983ED4F386953B
:1008000077956795B795F7959F5FC9F7880F911D05
:100810009695879597F90895E1E0660F771F881FF1
:10082000BB1F621773078407BA0720F0621B730BA4
:10083000840BBA0BEE1F88F7E09508950E94070518
:1008400088F09F5798F0B92F9927B751B0F0E1F091
:10085000660F771F881F991F1AF0BA95C9F714C041
:10086000B13091F00E943905B1E008950C9439053A
:10087000672F782F8827B85F39F0B93FCCF386957A
:1008800077956795B395D9F73EF4909580957095D7
:1008900061957F4F8F4F9F4F0895E89409C097FB54
:1008A0003EF490958095709561957F4F8F4F9F4F47
:1008B0009923A9F0F92F96E9BB279395F69587958B
:1008C00077956795B795F111F8CFFAF4BB0F11F44E
:1008D00060FF1BC06F5F7F4F8F4F9F4F16C08823F5
:1008E00011F096E911C0772321F09EE8872F762F2B
:1008F00005C0662371F096E8862F70E060E02AF06C
:100900009A95660F771F881FDAF7880F9695879557
:1009100097F90895990F0008550FAA0BE0E8FEEF2C
:1009200016161706E807F907C0F012161306E407B3
:10093000F50798F0621B730B840B950B39F40A26AC
:1009400061F0232B242B252B21F408950A2609F48A
:10095000A140A6958FEF811D811D089597F99F678E
:1009600080E870E060E00895882371F4772321F037
:100970009850872B762F07C0662311F499270DC056
:100980009051862B70E060E02AF09A95660F771FF1
:10099000881FDAF7880F9695879597F908959F3FF6
:1009A00031F0915020F4879577956795B795880F2A
:1009B000911D9695879597F908959FEF80EC08957E
:1009C00000240A941616170618060906089500242E
:1009D0000A9412161306140605060895092E0394A8
:1009E000000C11F4882352F0BB0F40F4BF2B11F41C
:1009F00060FF04C06F5F7F4F8F4F9F4F089557FD7B
:100A00009058440F551F59F05F3F71F04795880F7C
:100A100097FB991F61F09F3F79F087950895121613
:100A200013061406551FF2CF4695F1DF08C01616BF
:100A300017061806991FF1CF869571056105089470
:100A400008950E940705A0F0BEE7B91788F4BB27F8
:100A50009F3860F41616B11D672F782F8827985F8E
:100A6000F7CF869577956795B11D93959639C8F31D
:100A70000895E894BB2766277727CB0197F9089557
:040A8000F894FFCF18
:020A840001016E
:00000001FF
